{
  "_format": "hh-sol-artifact-1",
  "contractName": "P2PLENDING",
  "sourceName": "contracts/P2PLENDING.sol",
  "abi": [
    {
      "inputs": [],
      "stateMutability": "nonpayable",
      "type": "constructor"
    },
    {
      "anonymous": false,
      "inputs": [
        {
          "indexed": true,
          "internalType": "address",
          "name": "_address",
          "type": "address"
        },
        {
          "indexed": true,
          "internalType": "uint256",
          "name": "amount",
          "type": "uint256"
        },
        {
          "indexed": true,
          "internalType": "uint256",
          "name": "timestamp",
          "type": "uint256"
        }
      ],
      "name": "LogBorrowerCollateralDeposited",
      "type": "event"
    },
    {
      "anonymous": false,
      "inputs": [
        {
          "indexed": true,
          "internalType": "address",
          "name": "_address",
          "type": "address"
        },
        {
          "indexed": true,
          "internalType": "uint256",
          "name": "_amount",
          "type": "uint256"
        },
        {
          "indexed": true,
          "internalType": "uint256",
          "name": "timestamp",
          "type": "uint256"
        }
      ],
      "name": "LogBorrowerCollateralRefunded",
      "type": "event"
    },
    {
      "anonymous": false,
      "inputs": [
        {
          "indexed": true,
          "internalType": "address",
          "name": "_address",
          "type": "address"
        },
        {
          "indexed": true,
          "internalType": "uint256",
          "name": "amount",
          "type": "uint256"
        },
        {
          "indexed": true,
          "internalType": "uint256",
          "name": "timestamp",
          "type": "uint256"
        }
      ],
      "name": "LogBorrowerDefaultsOnPayment",
      "type": "event"
    },
    {
      "anonymous": false,
      "inputs": [
        {
          "indexed": true,
          "internalType": "address",
          "name": "_address",
          "type": "address"
        },
        {
          "indexed": true,
          "internalType": "uint256",
          "name": "timestamp",
          "type": "uint256"
        }
      ],
      "name": "LogBorrowerRepaymentFinished",
      "type": "event"
    },
    {
      "anonymous": false,
      "inputs": [
        {
          "indexed": true,
          "internalType": "address",
          "name": "_address",
          "type": "address"
        },
        {
          "indexed": true,
          "internalType": "uint256",
          "name": "_amount",
          "type": "uint256"
        },
        {
          "indexed": true,
          "internalType": "uint256",
          "name": "timestamp",
          "type": "uint256"
        }
      ],
      "name": "LogBorrowerRepaymentInstallment",
      "type": "event"
    },
    {
      "anonymous": false,
      "inputs": [
        {
          "indexed": true,
          "internalType": "address",
          "name": "_address",
          "type": "address"
        },
        {
          "indexed": true,
          "internalType": "uint256",
          "name": "_amount",
          "type": "uint256"
        },
        {
          "indexed": true,
          "internalType": "uint256",
          "name": "timestamp",
          "type": "uint256"
        }
      ],
      "name": "LogBorrowerWithdrawal",
      "type": "event"
    },
    {
      "anonymous": false,
      "inputs": [
        {
          "indexed": true,
          "internalType": "address",
          "name": "_address",
          "type": "address"
        },
        {
          "indexed": true,
          "internalType": "uint256",
          "name": "timestamp",
          "type": "uint256"
        }
      ],
      "name": "LogCreditInitialized",
      "type": "event"
    },
    {
      "anonymous": false,
      "inputs": [
        {
          "indexed": true,
          "internalType": "bool",
          "name": "active",
          "type": "bool"
        },
        {
          "indexed": true,
          "internalType": "uint256",
          "name": "timestamp",
          "type": "uint256"
        }
      ],
      "name": "LogCreditStateActiveChanged",
      "type": "event"
    },
    {
      "anonymous": false,
      "inputs": [
        {
          "indexed": true,
          "internalType": "enum P2PLENDING.State",
          "name": "state",
          "type": "uint8"
        },
        {
          "indexed": true,
          "internalType": "uint256",
          "name": "timestamp",
          "type": "uint256"
        }
      ],
      "name": "LogCreditStateChanged",
      "type": "event"
    },
    {
      "anonymous": false,
      "inputs": [
        {
          "indexed": true,
          "internalType": "address",
          "name": "_address",
          "type": "address"
        },
        {
          "indexed": true,
          "internalType": "uint256",
          "name": "_amount",
          "type": "uint256"
        },
        {
          "indexed": true,
          "internalType": "uint256",
          "name": "timestamp",
          "type": "uint256"
        }
      ],
      "name": "LogExtraBorrowerCollateralRefunded",
      "type": "event"
    },
    {
      "anonymous": false,
      "inputs": [
        {
          "indexed": true,
          "internalType": "address",
          "name": "_address",
          "type": "address"
        },
        {
          "indexed": true,
          "internalType": "uint256",
          "name": "_amount",
          "type": "uint256"
        },
        {
          "indexed": true,
          "internalType": "uint256",
          "name": "timestamp",
          "type": "uint256"
        }
      ],
      "name": "LogLenderInvestment",
      "type": "event"
    },
    {
      "anonymous": false,
      "inputs": [
        {
          "indexed": true,
          "internalType": "address",
          "name": "_address",
          "type": "address"
        },
        {
          "indexed": true,
          "internalType": "uint256",
          "name": "_amount",
          "type": "uint256"
        },
        {
          "indexed": true,
          "internalType": "uint256",
          "name": "timestamp",
          "type": "uint256"
        }
      ],
      "name": "LogLenderRefunded",
      "type": "event"
    },
    {
      "anonymous": false,
      "inputs": [
        {
          "indexed": true,
          "internalType": "address",
          "name": "_address",
          "type": "address"
        },
        {
          "indexed": true,
          "internalType": "uint256",
          "name": "_amount",
          "type": "uint256"
        },
        {
          "indexed": true,
          "internalType": "uint256",
          "name": "timestamp",
          "type": "uint256"
        }
      ],
      "name": "LogLenderWithdrawal",
      "type": "event"
    },
    {
      "anonymous": false,
      "inputs": [
        {
          "indexed": true,
          "internalType": "address",
          "name": "previousOwner",
          "type": "address"
        },
        {
          "indexed": true,
          "internalType": "address",
          "name": "newOwner",
          "type": "address"
        }
      ],
      "name": "OwnershipTransferred",
      "type": "event"
    },
    {
      "inputs": [
        {
          "internalType": "uint256",
          "name": "_collateralAmount",
          "type": "uint256"
        },
        {
          "internalType": "uint256",
          "name": "_requestedAmount",
          "type": "uint256"
        },
        {
          "internalType": "uint256",
          "name": "_requestedNumberRepayment",
          "type": "uint256"
        },
        {
          "internalType": "uint256",
          "name": "_dateLoanPaid",
          "type": "uint256"
        }
      ],
      "name": "applyForLoan",
      "outputs": [],
      "stateMutability": "nonpayable",
      "type": "function"
    },
    {
      "inputs": [],
      "name": "borrowersCollateral",
      "outputs": [],
      "stateMutability": "payable",
      "type": "function"
    },
    {
      "inputs": [],
      "name": "getCreditInfo",
      "outputs": [
        {
          "internalType": "address",
          "name": "",
          "type": "address"
        },
        {
          "internalType": "uint256",
          "name": "",
          "type": "uint256"
        },
        {
          "internalType": "uint256",
          "name": "",
          "type": "uint256"
        },
        {
          "internalType": "uint256",
          "name": "",
          "type": "uint256"
        },
        {
          "internalType": "uint256",
          "name": "",
          "type": "uint256"
        },
        {
          "internalType": "uint256",
          "name": "",
          "type": "uint256"
        },
        {
          "internalType": "uint256",
          "name": "",
          "type": "uint256"
        },
        {
          "internalType": "enum P2PLENDING.State",
          "name": "",
          "type": "uint8"
        },
        {
          "internalType": "bool",
          "name": "",
          "type": "bool"
        },
        {
          "internalType": "uint256",
          "name": "",
          "type": "uint256"
        }
      ],
      "stateMutability": "view",
      "type": "function"
    },
    {
      "inputs": [],
      "name": "getTransactionInfo",
      "outputs": [
        {
          "components": [
            {
              "internalType": "address",
              "name": "borrower",
              "type": "address"
            },
            {
              "internalType": "uint256",
              "name": "requestedAmount",
              "type": "uint256"
            },
            {
              "internalType": "uint256",
              "name": "collateralAmount",
              "type": "uint256"
            },
            {
              "internalType": "uint256",
              "name": "repaymentInstallment",
              "type": "uint256"
            },
            {
              "internalType": "uint256",
              "name": "returnAmount",
              "type": "uint256"
            },
            {
              "internalType": "uint256",
              "name": "dateLoanPaid",
              "type": "uint256"
            }
          ],
          "internalType": "struct P2PLENDING.TransactionStruct[]",
          "name": "",
          "type": "tuple[]"
        }
      ],
      "stateMutability": "view",
      "type": "function"
    },
    {
      "inputs": [],
      "name": "invest",
      "outputs": [],
      "stateMutability": "payable",
      "type": "function"
    },
    {
      "inputs": [
        {
          "internalType": "address",
          "name": "",
          "type": "address"
        }
      ],
      "name": "lenders",
      "outputs": [
        {
          "internalType": "bool",
          "name": "",
          "type": "bool"
        }
      ],
      "stateMutability": "view",
      "type": "function"
    },
    {
      "inputs": [
        {
          "internalType": "address",
          "name": "",
          "type": "address"
        }
      ],
      "name": "lendersInvestedAmount",
      "outputs": [
        {
          "internalType": "uint256",
          "name": "",
          "type": "uint256"
        }
      ],
      "stateMutability": "view",
      "type": "function"
    },
    {
      "inputs": [],
      "name": "owner",
      "outputs": [
        {
          "internalType": "address",
          "name": "",
          "type": "address"
        }
      ],
      "stateMutability": "view",
      "type": "function"
    },
    {
      "inputs": [],
      "name": "refundCollateral",
      "outputs": [],
      "stateMutability": "nonpayable",
      "type": "function"
    },
    {
      "inputs": [],
      "name": "refundCollateralAfterDefault",
      "outputs": [],
      "stateMutability": "nonpayable",
      "type": "function"
    },
    {
      "inputs": [],
      "name": "refundFundDeposited",
      "outputs": [],
      "stateMutability": "nonpayable",
      "type": "function"
    },
    {
      "inputs": [],
      "name": "renounceOwnership",
      "outputs": [],
      "stateMutability": "nonpayable",
      "type": "function"
    },
    {
      "inputs": [],
      "name": "repay",
      "outputs": [],
      "stateMutability": "payable",
      "type": "function"
    },
    {
      "inputs": [],
      "name": "requestInterest",
      "outputs": [],
      "stateMutability": "nonpayable",
      "type": "function"
    },
    {
      "inputs": [
        {
          "internalType": "address",
          "name": "newOwner",
          "type": "address"
        }
      ],
      "name": "transferOwnership",
      "outputs": [],
      "stateMutability": "nonpayable",
      "type": "function"
    },
    {
      "inputs": [],
      "name": "withdraw",
      "outputs": [],
      "stateMutability": "nonpayable",
      "type": "function"
    }
  ],
  "bytecode": "0x60806040526000600e60006101000a81548160ff0219169083151502179055506000600e60016101000a81548160ff02191690831515021790555060006011553480156200004c57600080fd5b506200006d620000616200007360201b60201c565b6200007b60201b60201c565b6200013f565b600033905090565b60008060009054906101000a900473ffffffffffffffffffffffffffffffffffffffff169050816000806101000a81548173ffffffffffffffffffffffffffffffffffffffff021916908373ffffffffffffffffffffffffffffffffffffffff1602179055508173ffffffffffffffffffffffffffffffffffffffff168173ffffffffffffffffffffffffffffffffffffffff167f8be0079c531659141344cd1fd0a4f28419497f9722a3daafe3b4186f6b6457e060405160405180910390a35050565b61249f806200014f6000396000f3fe6080604052600436106100f35760003560e01c8063aeb992581161008a578063efd475ab11610059578063efd475ab14610245578063f06817cf1461025c578063f2fde38b14610290578063fbaa78f3146102b9576100f3565b8063aeb99258146101ef578063b6146665146101f9578063b94ce2f514610224578063e8b5e51f1461023b576100f3565b806359e9c5f5116100c657806359e9c5f51461016d5780636a53c9c114610196578063715018a6146101ad5780638da5cb5b146101c4576100f3565b80632098b7ff146100f857806328fd10d71461010f5780633ccfd60b1461014c578063402d888314610163575b600080fd5b34801561010457600080fd5b5061010d6102f6565b005b34801561011b57600080fd5b5061013660048036038101906101319190611d8f565b610562565b60405161014391906120e5565b60405180910390f35b34801561015857600080fd5b50610161610582565b005b61016b61079e565b005b34801561017957600080fd5b50610194600480360381019061018f9190611db8565b610a9a565b005b3480156101a257600080fd5b506101ab610d64565b005b3480156101b957600080fd5b506101c2611134565b005b3480156101d057600080fd5b506101d9611148565b6040516101e6919061200c565b60405180910390f35b6101f7611171565b005b34801561020557600080fd5b5061020e61130e565b60405161021b91906120c3565b60405180910390f35b34801561023057600080fd5b506102396113f5565b005b61024361167c565b005b34801561025157600080fd5b5061025a611887565b005b34801561026857600080fd5b50610271611ace565b6040516102879a99989796959493929190612027565b60405180910390f35b34801561029c57600080fd5b506102b760048036038101906102b29190611d8f565b611b53565b005b3480156102c557600080fd5b506102e060048036038101906102db9190611d8f565b611bd7565b6040516102ed9190612140565b60405180910390f35b60011515600e60009054906101000a900460ff1615151461031657600080fd5b600160009054906101000a900473ffffffffffffffffffffffffffffffffffffffff1673ffffffffffffffffffffffffffffffffffffffff163373ffffffffffffffffffffffffffffffffffffffff161461037057600080fd5b600360058111156103aa577f4e487b7100000000000000000000000000000000000000000000000000000000600052602160045260246000fd5b600e60029054906101000a900460ff1660058111156103f2577f4e487b7100000000000000000000000000000000000000000000000000000000600052602160045260246000fd5b146103fc57600080fd5b42600b541161040a57600080fd5b3373ffffffffffffffffffffffffffffffffffffffff166108fc600d549081150290604051600060405180830381858888f19350505050158015610452573d6000803e3d6000fd5b5042600d543373ffffffffffffffffffffffffffffffffffffffff167fd3a6b9d895ac0b3d925129dbeefccf49b15c4089c72c194626c354aaedc46cbd60405160405180910390a46004600e60026101000a81548160ff021916908360058111156104e6577f4e487b7100000000000000000000000000000000000000000000000000000000600052602160045260246000fd5b021790555042600e60029054906101000a900460ff166005811115610534577f4e487b7100000000000000000000000000000000000000000000000000000000600052602160045260246000fd5b7faaae373901e745122c2e0925ad006227969c6cd190b7d5ea2fb7fdbd1d955b3560405160405180910390a3565b600f6020528060005260406000206000915054906101000a900460ff1681565b60011515600e60009054906101000a900460ff161515146105a257600080fd5b600160009054906101000a900473ffffffffffffffffffffffffffffffffffffffff1673ffffffffffffffffffffffffffffffffffffffff163373ffffffffffffffffffffffffffffffffffffffff16146105fc57600080fd5b60025447101561060b57600080fd5b60001515600e60019054906101000a900460ff1615151461062b57600080fd5b6002600e60026101000a81548160ff02191690836005811115610677577f4e487b7100000000000000000000000000000000000000000000000000000000600052602160045260246000fd5b02179055506001600e60016101000a81548160ff02191690831515021790555042600e60029054906101000a900460ff1660058111156106e0577f4e487b7100000000000000000000000000000000000000000000000000000000600052602160045260246000fd5b7faaae373901e745122c2e0925ad006227969c6cd190b7d5ea2fb7fdbd1d955b3560405160405180910390a33373ffffffffffffffffffffffffffffffffffffffff166108fc6002549081150290604051600060405180830381858888f19350505050158015610754573d6000803e3d6000fd5b50426002543373ffffffffffffffffffffffffffffffffffffffff167f20734f14d107b526674905e470e35d0a474f9fb996a7bdb034c839c8894524e660405160405180910390a4565b600160009054906101000a900473ffffffffffffffffffffffffffffffffffffffff1673ffffffffffffffffffffffffffffffffffffffff163373ffffffffffffffffffffffffffffffffffffffff16146107f857600080fd5b60011515600e60009054906101000a900460ff1615151461081857600080fd5b60026005811115610852577f4e487b7100000000000000000000000000000000000000000000000000000000600052602160045260246000fd5b600e60029054906101000a900460ff16600581111561089a577f4e487b7100000000000000000000000000000000000000000000000000000000600052602160045260246000fd5b146108a457600080fd5b42600b54116108b257600080fd5b6000600754116108c157600080fd5b6003543411156108fa577f4e487b7100000000000000000000000000000000000000000000000000000000600052600160045260246000fd5b60085434101561090957600080fd5b3460045461091791906121a5565b6004819055506007600081548092919061093090612327565b919050555042600c8190555042343373ffffffffffffffffffffffffffffffffffffffff167f350a09487d622378c6efbda255f996387696319f803a2e53eee64f7aa70be85a60405160405180910390a46003546004541415610a9857423373ffffffffffffffffffffffffffffffffffffffff167f25630de45a38a90cbca3a2eb35a8197e51b56d6d912581711e5e3773fe77cabc60405160405180910390a36003600e60026101000a81548160ff02191690836005811115610a1d577f4e487b7100000000000000000000000000000000000000000000000000000000600052602160045260246000fd5b021790555042600e60029054906101000a900460ff166005811115610a6b577f4e487b7100000000000000000000000000000000000000000000000000000000600052602160045260246000fd5b7faaae373901e745122c2e0925ad006227969c6cd190b7d5ea2fb7fdbd1d955b3560405160405180910390a35b565b33600160006101000a81548173ffffffffffffffffffffffffffffffffffffffff021916908373ffffffffffffffffffffffffffffffffffffffff16021790555083600d819055508260028190555060146064600254610afa91906121fb565b610b04919061222c565b6005819055508160068190555081600781905550610b2d60055484611bef90919063ffffffff16565b600381905550610b4a600654600354611c0590919063ffffffff16565b60088190555042600a8190555080600b81905550600060048190555060006011819055506000600e60016101000a81548160ff02191690831515021790555042600160009054906101000a900473ffffffffffffffffffffffffffffffffffffffff1673ffffffffffffffffffffffffffffffffffffffff167ff9f75c99c0e3522cd19ffc66fd6c94989a3f0821d37d5c5bb176aab904c6335d60405160405180910390a36001600e60006101000a81548160ff02191690831515021790555042600e60009054906101000a900460ff1615157f160914ea27c60aa29a5f3a69d74e6069869de36e38939de1e0a66b921d8623d260405160405180910390a360126040518060c00160405280600160009054906101000a900473ffffffffffffffffffffffffffffffffffffffff1673ffffffffffffffffffffffffffffffffffffffff1681526020016002548152602001600d54815260200160085481526020016003548152602001600b54815250908060018154018082558091505060019003906000526020600020906006020160009091909190915060008201518160000160006101000a81548173ffffffffffffffffffffffffffffffffffffffff021916908373ffffffffffffffffffffffffffffffffffffffff1602179055506020820151816001015560408201518160020155606082015181600301556080820151816004015560a08201518160050155505050505050565b60011515600e60009054906101000a900460ff16151514610d8457600080fd5b60011515600f60003373ffffffffffffffffffffffffffffffffffffffff1673ffffffffffffffffffffffffffffffffffffffff16815260200190815260200160002060009054906101000a900460ff16151514610de157600080fd5b60046005811115610e1b577f4e487b7100000000000000000000000000000000000000000000000000000000600052602160045260246000fd5b600e60029054906101000a900460ff166005811115610e63577f4e487b7100000000000000000000000000000000000000000000000000000000600052602160045260246000fd5b14610e6d57600080fd5b6000601060003373ffffffffffffffffffffffffffffffffffffffff1673ffffffffffffffffffffffffffffffffffffffff1681526020019081526020016000205411610eb957600080fd5b3373ffffffffffffffffffffffffffffffffffffffff166108fc601060003373ffffffffffffffffffffffffffffffffffffffff1673ffffffffffffffffffffffffffffffffffffffff168152602001908152602001600020549081150290604051600060405180830381858888f19350505050158015610f3e573d6000803e3d6000fd5b506000601060003373ffffffffffffffffffffffffffffffffffffffff1673ffffffffffffffffffffffffffffffffffffffff1681526020019081526020016000208190555042601060003373ffffffffffffffffffffffffffffffffffffffff1673ffffffffffffffffffffffffffffffffffffffff168152602001908152602001600020543373ffffffffffffffffffffffffffffffffffffffff167f71e252e33f19f0223f47f27d00910548d26488b9b55cb5b410b75e273152f8d660405160405180910390a46000471415611132576000600e60006101000a81548160ff02191690831515021790555042600e60009054906101000a900460ff1615157f160914ea27c60aa29a5f3a69d74e6069869de36e38939de1e0a66b921d8623d260405160405180910390a36005600e60026101000a81548160ff021916908360058111156110b7577f4e487b7100000000000000000000000000000000000000000000000000000000600052602160045260246000fd5b021790555042600e60029054906101000a900460ff166005811115611105577f4e487b7100000000000000000000000000000000000000000000000000000000600052602160045260246000fd5b7faaae373901e745122c2e0925ad006227969c6cd190b7d5ea2fb7fdbd1d955b3560405160405180910390a35b565b61113c611c1b565b6111466000611c99565b565b60008060009054906101000a900473ffffffffffffffffffffffffffffffffffffffff16905090565b600160009054906101000a900473ffffffffffffffffffffffffffffffffffffffff1673ffffffffffffffffffffffffffffffffffffffff163373ffffffffffffffffffffffffffffffffffffffff16146111cb57600080fd5b60011515600e60009054906101000a900460ff161515146111eb57600080fd5b6003543410156111fa57600080fd5b34600d8190555042343373ffffffffffffffffffffffffffffffffffffffff167f3f2761f2939fffec025ba62156971ca1a6aa3e77a8cd8baa74f1a2ad06fe29ae60405160405180910390a46001600e60026101000a81548160ff02191690836005811115611292577f4e487b7100000000000000000000000000000000000000000000000000000000600052602160045260246000fd5b021790555042600e60029054906101000a900460ff1660058111156112e0577f4e487b7100000000000000000000000000000000000000000000000000000000600052602160045260246000fd5b7faaae373901e745122c2e0925ad006227969c6cd190b7d5ea2fb7fdbd1d955b3560405160405180910390a3565b60606012805480602002602001604051908101604052809291908181526020016000905b828210156113ec57838290600052602060002090600602016040518060c00160405290816000820160009054906101000a900473ffffffffffffffffffffffffffffffffffffffff1673ffffffffffffffffffffffffffffffffffffffff1673ffffffffffffffffffffffffffffffffffffffff1681526020016001820154815260200160028201548152602001600382015481526020016004820154815260200160058201548152505081526020019060010190611332565b50505050905090565b60011515600e60009054906101000a900460ff1615151461141557600080fd5b600160009054906101000a900473ffffffffffffffffffffffffffffffffffffffff1673ffffffffffffffffffffffffffffffffffffffff163373ffffffffffffffffffffffffffffffffffffffff161461146f57600080fd5b42600b541061147d57600080fd5b600060045460035461148f9190612286565b600d5461149c9190612286565b905042813373ffffffffffffffffffffffffffffffffffffffff167f9bb839ae1c60ba0d3fdb6a1673dd67feef61ecd425b861a7b815d684af2a3e6760405160405180910390a43373ffffffffffffffffffffffffffffffffffffffff166108fc829081150290604051600060405180830381858888f19350505050158015611529573d6000803e3d6000fd5b50423373ffffffffffffffffffffffffffffffffffffffff167f25630de45a38a90cbca3a2eb35a8197e51b56d6d912581711e5e3773fe77cabc60405160405180910390a342813373ffffffffffffffffffffffffffffffffffffffff167fe192a1bd70ae0725ab66b6991828757c1b343209b3b58f090e8ff3ab040da28160405160405180910390a46004600e60026101000a81548160ff021916908360058111156115ff577f4e487b7100000000000000000000000000000000000000000000000000000000600052602160045260246000fd5b021790555042600e60029054906101000a900460ff16600581111561164d577f4e487b7100000000000000000000000000000000000000000000000000000000600052602160045260246000fd5b7faaae373901e745122c2e0925ad006227969c6cd190b7d5ea2fb7fdbd1d955b3560405160405180910390a350565b60011515600e60009054906101000a900460ff1615151461169c57600080fd5b600160058111156116d6577f4e487b7100000000000000000000000000000000000000000000000000000000600052602160045260246000fd5b600e60029054906101000a900460ff16600581111561171e577f4e487b7100000000000000000000000000000000000000000000000000000000600052602160045260246000fd5b1461172857600080fd5b66038d7ea4c68000341161173b57600080fd5b6001600f60003373ffffffffffffffffffffffffffffffffffffffff1673ffffffffffffffffffffffffffffffffffffffff16815260200190815260200160002060006101000a81548160ff021916908315150217905550601160008154809291906117a690612351565b91905055506117fd34601060003373ffffffffffffffffffffffffffffffffffffffff1673ffffffffffffffffffffffffffffffffffffffff16815260200190815260200160002054611bef90919063ffffffff16565b601060003373ffffffffffffffffffffffffffffffffffffffff1673ffffffffffffffffffffffffffffffffffffffff1681526020019081526020016000208190555042343373ffffffffffffffffffffffffffffffffffffffff167f1b0969ce7f5b05c5e0969329a05cdbd7e2e2f6cee33ba26fd6e6bbcff82312cd60405160405180910390a4565b60011515600e60009054906101000a900460ff161515146118a757600080fd5b60011515600f60003373ffffffffffffffffffffffffffffffffffffffff1673ffffffffffffffffffffffffffffffffffffffff16815260200190815260200160002060009054906101000a900460ff1615151461190457600080fd5b6004600581111561193e577f4e487b7100000000000000000000000000000000000000000000000000000000600052602160045260246000fd5b600e60029054906101000a900460ff166005811115611986577f4e487b7100000000000000000000000000000000000000000000000000000000600052602160045260246000fd5b1461199057600080fd5b6000601060003373ffffffffffffffffffffffffffffffffffffffff1673ffffffffffffffffffffffffffffffffffffffff16815260200190815260200160002054116119dc57600080fd5b6011546003546119ec91906121fb565b6009819055506000601154600554611a0491906121fb565b9050600954471015611a3f577f4e487b7100000000000000000000000000000000000000000000000000000000600052600160045260246000fd5b3373ffffffffffffffffffffffffffffffffffffffff166108fc829081150290604051600060405180830381858888f19350505050158015611a85573d6000803e3d6000fd5b5042813373ffffffffffffffffffffffffffffffffffffffff167f052f6685df2f773f854b17db1d82e2352e222010daaf8175761f02ef8782c40360405160405180910390a450565b600080600080600080600080600080600160009054906101000a900473ffffffffffffffffffffffffffffffffffffffff16600254600d54600854600754600454600354600e60029054906101000a900460ff16600e60009054906101000a900460ff1647995099509950995099509950995099509950995090919293949596979899565b611b5b611c1b565b600073ffffffffffffffffffffffffffffffffffffffff168173ffffffffffffffffffffffffffffffffffffffff161415611bcb576040517f08c379a0000000000000000000000000000000000000000000000000000000008152600401611bc290612100565b60405180910390fd5b611bd481611c99565b50565b60106020528060005260406000206000915090505481565b60008183611bfd91906121a5565b905092915050565b60008183611c1391906121fb565b905092915050565b611c23611d5d565b73ffffffffffffffffffffffffffffffffffffffff16611c41611148565b73ffffffffffffffffffffffffffffffffffffffff1614611c97576040517f08c379a0000000000000000000000000000000000000000000000000000000008152600401611c8e90612120565b60405180910390fd5b565b60008060009054906101000a900473ffffffffffffffffffffffffffffffffffffffff169050816000806101000a81548173ffffffffffffffffffffffffffffffffffffffff021916908373ffffffffffffffffffffffffffffffffffffffff1602179055508173ffffffffffffffffffffffffffffffffffffffff168173ffffffffffffffffffffffffffffffffffffffff167f8be0079c531659141344cd1fd0a4f28419497f9722a3daafe3b4186f6b6457e060405160405180910390a35050565b600033905090565b600081359050611d748161243b565b92915050565b600081359050611d8981612452565b92915050565b600060208284031215611da157600080fd5b6000611daf84828501611d65565b91505092915050565b60008060008060808587031215611dce57600080fd5b6000611ddc87828801611d7a565b9450506020611ded87828801611d7a565b9350506040611dfe87828801611d7a565b9250506060611e0f87828801611d7a565b91505092959194509250565b6000611e278383611f73565b60c08301905092915050565b611e3c816122ba565b82525050565b611e4b816122ba565b82525050565b6000611e5c8261216b565b611e668185612183565b9350611e718361215b565b8060005b83811015611ea2578151611e898882611e1b565b9750611e9483612176565b925050600181019050611e75565b5085935050505092915050565b611eb8816122cc565b82525050565b611ec781612315565b82525050565b6000611eda602683612194565b91507f4f776e61626c653a206e6577206f776e657220697320746865207a65726f206160008301527f64647265737300000000000000000000000000000000000000000000000000006020830152604082019050919050565b6000611f40602083612194565b91507f4f776e61626c653a2063616c6c6572206973206e6f7420746865206f776e65726000830152602082019050919050565b60c082016000820151611f896000850182611e33565b506020820151611f9c6020850182611fee565b506040820151611faf6040850182611fee565b506060820151611fc26060850182611fee565b506080820151611fd56080850182611fee565b5060a0820151611fe860a0850182611fee565b50505050565b611ff78161230b565b82525050565b6120068161230b565b82525050565b60006020820190506120216000830184611e42565b92915050565b60006101408201905061203d600083018d611e42565b61204a602083018c611ffd565b612057604083018b611ffd565b612064606083018a611ffd565b6120716080830189611ffd565b61207e60a0830188611ffd565b61208b60c0830187611ffd565b61209860e0830186611ebe565b6120a6610100830185611eaf565b6120b4610120830184611ffd565b9b9a5050505050505050505050565b600060208201905081810360008301526120dd8184611e51565b905092915050565b60006020820190506120fa6000830184611eaf565b92915050565b6000602082019050818103600083015261211981611ecd565b9050919050565b6000602082019050818103600083015261213981611f33565b9050919050565b60006020820190506121556000830184611ffd565b92915050565b6000819050602082019050919050565b600081519050919050565b6000602082019050919050565b600082825260208201905092915050565b600082825260208201905092915050565b60006121b08261230b565b91506121bb8361230b565b9250827fffffffffffffffffffffffffffffffffffffffffffffffffffffffffffffffff038211156121f0576121ef61239a565b5b828201905092915050565b60006122068261230b565b91506122118361230b565b925082612221576122206123c9565b5b828204905092915050565b60006122378261230b565b91506122428361230b565b9250817fffffffffffffffffffffffffffffffffffffffffffffffffffffffffffffffff048311821515161561227b5761227a61239a565b5b828202905092915050565b60006122918261230b565b915061229c8361230b565b9250828210156122af576122ae61239a565b5b828203905092915050565b60006122c5826122eb565b9050919050565b60008115159050919050565b60008190506122e682612427565b919050565b600073ffffffffffffffffffffffffffffffffffffffff82169050919050565b6000819050919050565b6000612320826122d8565b9050919050565b60006123328261230b565b915060008214156123465761234561239a565b5b600182039050919050565b600061235c8261230b565b91507fffffffffffffffffffffffffffffffffffffffffffffffffffffffffffffffff82141561238f5761238e61239a565b5b600182019050919050565b7f4e487b7100000000000000000000000000000000000000000000000000000000600052601160045260246000fd5b7f4e487b7100000000000000000000000000000000000000000000000000000000600052601260045260246000fd5b7f4e487b7100000000000000000000000000000000000000000000000000000000600052602160045260246000fd5b60068110612438576124376123f8565b5b50565b612444816122ba565b811461244f57600080fd5b50565b61245b8161230b565b811461246657600080fd5b5056fea2646970667358221220ee3f44d2f8c31abd4346a9e36d002bdb6092a1341cb65434e8b41701b05c757364736f6c63430008000033",
  "linkReferences": {},
  "deployedLinkReferences": {}
}